:020000001F2EB1
:10000800F000030EF100831203130C1C18280C10C7
:10001800CF308F002C308E007314F20A0A3072022F
:10002800031D1828F201F314710E8300F00E700EF0
:020038000900BD
:100C3E008316031307108710071105148514051565
:100C4E008515FF308600880100309F00FF3092002E
:100C5E0083120313063092000C3097000C309D0067
:100C6E00F201F30131309000CF308F002C308E0026
:100C7E00831603130C14C9270230A8272830A8277F
:100C8E000C30A8270130A827C9270030D12783129E
:100C9E000313AB00FF3A031D5D2E0030AF009930F9
:100CAE00B000DF27993083120313AB0083120313B6
:100CBE000B178B1783120313731C672E73106E267C
:100CCE0083120313F31C612EF310F226612E83128E
:100CDE0003134130822783120313A1004930822768
:100CEE0083120313A2005130822783120313A30031
:100CFE005930822783120313A40083120313861F15
:100D0E008B2E731AF12E922E831203137316071065
:100D1E0095019B01F12E8312031374189D2E8312DD
:100D2E000313903024020318A42EAB2E8312031348
:100D3E0070302402031CA82EAB2E831203137414DE
:100D4E00AB2E83120313741083120313061AB52EDF
:100D5E008312031373117312AE01C02E8312031389
:100D6E007319C42E831203132B0821020318C02EED
:100D7E00C42E831203130714C72E831203130710F6
:100D8E0083120313861ACE2EFF309B00D22E8312AF
:100D9E00031324089B0083120313061BD92EFF3066
:100DAE009500F12E831203137418E62EDE2E831295
:100DBE000313230823070318FF30A500EA2E83121E
:100DCE0003132308A5008312031322082507031813
:100DDE00FF309500080083120313071CFE2EAE0A87
:100DEE000A302E02031C012F73150710012F8312D8
:100DFE000313AE0183120313731A082F73194B2FAB
:100E0E002B2F8030A8274530AC272D30AC27533000
:100E1E00AC275430AC274F30AC275030AC272130A4
:100E2E00AC272030AC272030AC272030AC27203028
:100E3E00AC272030AC272030AC272030AC27203018
:100E4E00AC272030AC276D2F8030A8274D30AC2733
:100E5E003A30AC278312031321088B272030AC279E
:100E6E005430AC273A30AC278312031323088B2758
:100E7E002030AC27831203137418482F4430AC274C
:100E8E006D2F4E30AC276D2F8030A8274530AC2704
:100E9E005230AC275230AC273A30AC274430AC2716
:100EAE005230AC275930AC272030AC275230AC270B
:100EBE005530AC274E30AC272130AC272030AC2734
:100ECE002030AC272030AC272030AC27C030A827EC
:100EDE004630AC273A30AC278312031315088B2704
:100EEE002030AC274C30AC273A30AC27831203139A
:100EFE0024088B270800831203139F00C2271F1597
:100F0E001F19872F1E08080083120313A701A801BB
:100F1E00A90064302902031C972FA900A70A902F5D
:100F2E000A302902031C9E2FA900A80A972F270812
:100F3E00303EAC272808303EAC272908303EAC277F
:100F4E000800831203130812AF2F8312031308161F
:100F5E00A600F0308805260E0F3988048816C227A1
:100F6E008812F030880526080F3988048816C227A3
:100F7E008812C2270800831203132030A000A00B92
:100F8E00C62F080083120313C830AA00C227AA0B6B
:100F9E00CD2F0800831203132F08831203178D0021
:100FAE00831603178C130C14831203170C080800F6
:100FBE00831203132F08831203178D00831203135A
:100FCE003008831203178C00831603178C130C152D
:100FDE00831203138B138316031755308D00AA301B
:100FEE008D008C148C18F92F0C11831203138B1790
:020FFE000800E9
:02400E007A3FF7
:00000001FF
